1. 安装bitcoin core
sudo apt-get update
sudo apt-get install autoconf
sudo apt-get install build-essential libtool autotools-dev automake pkg-config libssl-dev libevent-dev bsdmainutils python3
./autogen.sh
sudo apt-get install libboost-system-dev libboost-filesystem-dev libboost-chrono-dev libboost-program-options-dev libboost-test-dev libboost-thread-dev

sudo apt-get install software-properties-common
sudo add-apt-repository ppa:bitcoin/bitcoin
sudo apt-get update
sudo apt-get install libdb4.8-dev libdb4.8++-dev

./configure --enable-wallet
make
make install

2.检查安装
root@DESKTOP-EAJVPOG:/mnt/c/Users/lanro/bitcoin/bitcoin# which bitcoind
/usr/local/bin/bitcoind
root@DESKTOP-EAJVPOG:/mnt/c/Users/lanro/bitcoin/bitcoin#
root@DESKTOP-EAJVPOG:/mnt/c/Users/lanro/bitcoin/bitcoin#
root@DESKTOP-EAJVPOG:/mnt/c/Users/lanro/bitcoin/bitcoin# which bitcoin-cli
/usr/local/bin/bitcoin-cli
root@DESKTOP-EAJVPOG:/mnt/c/Users/lanro/bitcoin/bitcoin#
root@DESKTOP-EAJVPOG:/mnt/c/Users/lanro/bitcoin/bitcoin#
root@DESKTOP-EAJVPOG:/mnt/c/Users/lanro/bitcoin/bitcoin# which bitcoin-cli

3. 启动
bitcoind -daemon
bitcoin-cli getblockchaininfo

4. 停止
bitcoin-cli stop

5. bitcoin-cli命令
查看transaction的raw数据
root@DESKTOP-EAJVPOG:/mnt/c/Users/lanro/bitcoin/bitcoin# bitcoin-cli getrawtransaction 0627052b6f28912f2703066a912ea577f2ce4da4caa5a5fbd8a57286c345c2f2
0100000001186f9f998a5aa6f048e51dd8419a14d8a0f1a8a2836dd734d2804fe65fa35779000000008b483045022100884d142d86652a3f47ba4746ec719bbfbd040a570b1deccbb6498c75c4ae24cb02204b9f039ff08df09cbe9f6addac960298cad530a863ea8f53982c09db8f6e381301410484ecc0d46f1918b30928fa0e4ed99f16a0fb4fde0735e7ade8416ab9fe423cc5412336376789d172787ec3457eee41c04f4938de5cc17b4a10fa336a8d752adfffffffff0260e31600000000001976a914ab68025513c3dbd2f7b92a94e0581f5d50f654e788acd0ef8000000000001976a9147f9b1a7fb68d60c536c2fd8aeaa53a8f3cc025a888ac00000000
root@DESKTOP-EAJVPOG:/mnt/c/Users/lanro/bitcoin/bitcoin#
root@DESKTOP-EAJVPOG:/mnt/c/Users/lanro/bitcoin/bitcoin#
root@DESKTOP-EAJVPOG:/mnt/c/Users/lanro/bitcoin/bitcoin#
解析transaction
root@DESKTOP-EAJVPOG:/mnt/c/Users/lanro/bitcoin/bitcoin# bitcoin-cli decoderawtransaction 0100000001186f9f998a5aa6f048e51dd8419a14d8a0f1a8a2836dd734d2804fe65fa35779000000008b483045022100884d142d86652a3f47ba4746ec719bbfbd040a570b1deccbb6498c75c4ae24cb02204b9f039ff08df09cbe9f6addac960298cad530a863ea8f53982c09db8f6e381301410484ecc0d46f1918b30928fa0e4ed99f16a0fb4fde0735e7ade8416ab9fe423cc5412336376789d172787ec3457eee41c04f4938de5cc17b4a10fa336a8d752adfffffffff0260e31600000000001976a914ab68025513c3dbd2f7b92a94e0581f5d50f654e788acd0ef8000000000001976a9147f9b1a7fb68d60c536c2fd8aeaa53a8f3cc025a888ac00000000
{
  "txid": "0627052b6f28912f2703066a912ea577f2ce4da4caa5a5fbd8a57286c345c2f2",
  "hash": "0627052b6f28912f2703066a912ea577f2ce4da4caa5a5fbd8a57286c345c2f2",
  "version": 1,
  "size": 258,
  "vsize": 258,
  "locktime": 0,
  "vin": [
    {
      "txid": "7957a35fe64f80d234d76d83a2a8f1a0d8149a41d81de548f0a65a8a999f6f18",
      "vout": 0,
      "scriptSig": {
        "asm": "3045022100884d142d86652a3f47ba4746ec719bbfbd040a570b1deccbb6498c75c4ae24cb02204b9f039ff08df09cbe9f6addac960298cad530a863ea8f53982c09db8f6e3813[ALL] 0484ecc0d46f1918b30928fa0e4ed99f16a0fb4fde0735e7ade8416ab9fe423cc5412336376789d172787ec3457eee41c04f4938de5cc17b4a10fa336a8d752adf",
        "hex": "483045022100884d142d86652a3f47ba4746ec719bbfbd040a570b1deccbb6498c75c4ae24cb02204b9f039ff08df09cbe9f6addac960298cad530a863ea8f53982c09db8f6e381301410484ecc0d46f1918b30928fa0e4ed99f16a0fb4fde0735e7ade8416ab9fe423cc5412336376789d172787ec3457eee41c04f4938de5cc17b4a10fa336a8d752adf"
      },
      "sequence": 4294967295
    }
  ],
  "vout": [
    {
      "value": 0.01500000,
      "n": 0,
      "scriptPubKey": {
        "asm": "OP_DUP OP_HASH160 ab68025513c3dbd2f7b92a94e0581f5d50f654e7 OP_EQUALVERIFY OP_CHECKSIG",
        "hex": "76a914ab68025513c3dbd2f7b92a94e0581f5d50f654e788ac",
        "reqSigs": 1,
        "type": "pubkeyhash",
        "addresses": [
          "1GdK9UzpHBzqzX2A9JFP3Di4weBwqgmoQA"
        ]
      }
    },
    {
      "value": 0.08450000,
      "n": 1,
      "scriptPubKey": {
        "asm": "OP_DUP OP_HASH160 7f9b1a7fb68d60c536c2fd8aeaa53a8f3cc025a8 OP_EQUALVERIFY OP_CHECKSIG",
        "hex": "76a9147f9b1a7fb68d60c536c2fd8aeaa53a8f3cc025a888ac",
        "reqSigs": 1,
        "type": "pubkeyhash",
        "addresses": [
          "1Cdid9KFAaatwczBwBttQcwXYCpvK8h7FK"
        ]
      }
    }
  ]
}

6. Key, Address
生成新地址
root@DESKTOP-EAJVPOG:/mnt/c/Users/lanro/bitcoin/bitcoin# bitcoin-cli getnewaddress
373ZDCVvoptaQLYF71b4Z1zuzeauGDJg7E

找到对应的私钥
root@DESKTOP-EAJVPOG:/mnt/c/Users/lanro/bitcoin/bitcoin# bitcoin-cli dumpprivkey 373ZDCVvoptaQLYF71b4Z1zuzeauGDJg7E
KyxawBMniUYAwv2HwgncqNBs99UjZbAZbBt4fCsKiVgAqzjSi4A2

转换私钥的格式
root@DESKTOP-EAJVPOG:/mnt/c/Users/lanro/bitcoin/bitcoin# bx wif-to-ec KyxawBMniUYAwv2HwgncqNBs99UjZbAZbBt4fCsKiVgAqzjSi4A2
51bb37cd59490623e5f3796455a9bc6441adb07fd9e5d5c7ed6c6084bdce0443

base58 decode私钥
root@DESKTOP-EAJVPOG:/mnt/c/Users/lanro/bitcoin/bitcoin# bx base58check-decode KyxawBMniUYAwv2HwgncqNBs99UjZbAZbBt4fCsKiVgAqzjSi4A2
wrapper
{
    checksum 4011807492
    payload 51bb37cd59490623e5f3796455a9bc6441adb07fd9e5d5c7ed6c6084bdce044301
    version 128
}

从hex到WIF-compressed （K或者L开头的base58串）
root@DESKTOP-EAJVPOG:/mnt/c/Users/lanro/bitcoin/bitcoin# bx base58check-encode 51bb37cd59490623e5f3796455a9bc6441adb07fd9e5d5c7ed6c6084bdce044301  --version 128
KyxawBMniUYAwv2HwgncqNBs99UjZbAZbBt4fCsKiVgAqzjSi4A2
或者
root@DESKTOP-EAJVPOG:/mnt/c/Users/lanro/bitcoin/bitcoin# bx ec-to-wif 51bb37cd59490623e5f3796455a9bc6441adb07fd9e5d5c7ed6c6084bdce0443
KyxawBMniUYAwv2HwgncqNBs99UjZbAZbBt4fCsKiVgAqzjSi4A2

从hex到WIF （5开头的base58串）
root@DESKTOP-EAJVPOG:/mnt/c/Users/lanro/bitcoin/bitcoin# bx base58check-encode 51bb37cd59490623e5f3796455a9bc6441adb07fd9e5d5c7ed6c6084bdce0443  --version 128
5JSHJG2zUyY5X7aNWcJ8fbhyg17HSWVSxn4QwRSSzS5LuShddj2

BIP-38是对WIF(5***)private key用密钥进行AES加密，结果是base58Check_encoded private key string, 以6P开头. 

7. wallet
签包是私钥的容器，一般实现为结构化文件或者简单的数据库